{
  "contractName": "BetPool",
  "abi": [
    {
      "inputs": [
        {
          "internalType": "uint256",
          "name": "_defaultAmount",
          "type": "uint256"
        },
        {
          "internalType": "address",
          "name": "_defaultToken",
          "type": "address"
        },
        {
          "internalType": "uint256",
          "name": "_endDate",
          "type": "uint256"
        }
      ],
      "stateMutability": "nonpayable",
      "type": "constructor"
    },
    {
      "anonymous": false,
      "inputs": [
        {
          "indexed": false,
          "internalType": "address",
          "name": "_currentOwner",
          "type": "address"
        },
        {
          "indexed": false,
          "internalType": "address",
          "name": "_proposedOwner",
          "type": "address"
        }
      ],
      "name": "NewOwnershipProposed",
      "type": "event"
    },
    {
      "anonymous": false,
      "inputs": [
        {
          "indexed": false,
          "internalType": "address",
          "name": "_previousOwner",
          "type": "address"
        },
        {
          "indexed": false,
          "internalType": "address",
          "name": "_newOwner",
          "type": "address"
        }
      ],
      "name": "OwnershipTransferred",
      "type": "event"
    },
    {
      "anonymous": false,
      "inputs": [
        {
          "indexed": false,
          "internalType": "string",
          "name": "_name",
          "type": "string"
        },
        {
          "indexed": false,
          "internalType": "address",
          "name": "_owner",
          "type": "address"
        },
        {
          "indexed": false,
          "internalType": "uint8",
          "name": "_scoreLeft",
          "type": "uint8"
        },
        {
          "indexed": false,
          "internalType": "uint8",
          "name": "_scoreRight",
          "type": "uint8"
        }
      ],
      "name": "onBet",
      "type": "event"
    },
    {
      "anonymous": false,
      "inputs": [
        {
          "indexed": false,
          "internalType": "uint256",
          "name": "_winners",
          "type": "uint256"
        },
        {
          "indexed": false,
          "internalType": "uint256",
          "name": "_unitPrize",
          "type": "uint256"
        }
      ],
      "name": "onBetResolved",
      "type": "event"
    },
    {
      "inputs": [],
      "name": "owner",
      "outputs": [
        {
          "internalType": "address",
          "name": "",
          "type": "address"
        }
      ],
      "stateMutability": "view",
      "type": "function"
    },
    {
      "inputs": [],
      "name": "ownerPendingClaim",
      "outputs": [
        {
          "internalType": "address",
          "name": "",
          "type": "address"
        }
      ],
      "stateMutability": "view",
      "type": "function"
    },
    {
      "inputs": [
        {
          "internalType": "string",
          "name": "_name",
          "type": "string"
        },
        {
          "internalType": "uint8",
          "name": "_leftScore",
          "type": "uint8"
        },
        {
          "internalType": "uint8",
          "name": "_rightScore",
          "type": "uint8"
        }
      ],
      "name": "bet",
      "outputs": [],
      "stateMutability": "nonpayable",
      "type": "function"
    },
    {
      "inputs": [
        {
          "internalType": "uint256",
          "name": "_index",
          "type": "uint256"
        }
      ],
      "name": "getBetData",
      "outputs": [
        {
          "internalType": "string",
          "name": "_name",
          "type": "string"
        },
        {
          "internalType": "address",
          "name": "_owner",
          "type": "address"
        },
        {
          "internalType": "uint8",
          "name": "_leftScore",
          "type": "uint8"
        },
        {
          "internalType": "uint8",
          "name": "_rightScore",
          "type": "uint8"
        }
      ],
      "stateMutability": "view",
      "type": "function"
    },
    {
      "inputs": [],
      "name": "getBets",
      "outputs": [
        {
          "internalType": "uint256",
          "name": "",
          "type": "uint256"
        }
      ],
      "stateMutability": "view",
      "type": "function"
    },
    {
      "inputs": [
        {
          "internalType": "uint8",
          "name": "leftScore",
          "type": "uint8"
        },
        {
          "internalType": "uint8",
          "name": "rightScore",
          "type": "uint8"
        }
      ],
      "name": "resolveBet",
      "outputs": [],
      "stateMutability": "nonpayable",
      "type": "function"
    },
    {
      "inputs": [
        {
          "internalType": "uint256",
          "name": "_amount",
          "type": "uint256"
        },
        {
          "internalType": "address",
          "name": "_token",
          "type": "address"
        }
      ],
      "name": "setAmountAndToken",
      "outputs": [],
      "stateMutability": "nonpayable",
      "type": "function"
    },
    {
      "inputs": [
        {
          "internalType": "address",
          "name": "_owner",
          "type": "address"
        }
      ],
      "name": "proposeChangeOwner",
      "outputs": [],
      "stateMutability": "nonpayable",
      "type": "function"
    },
    {
      "inputs": [],
      "name": "claimOwnership",
      "outputs": [],
      "stateMutability": "nonpayable",
      "type": "function"
    }
  ],
  "bytecode": "0x60806040526007805460ff60a01b1916905534801561001d57600080fd5b506040516110a53803806110a583398101604081905261003c91610076565b600492909255600580546001600160a01b039092166001600160a01b031992831617905560039190915560078054909116331790556100bc565b60008060006060848603121561008b57600080fd5b835160208501519093506001600160a01b03811681146100aa57600080fd5b80925050604084015190509250925092565b610fda806100cb6000396000f3fe608060405234801561001057600080fd5b50600436106100935760003560e01c80634f9f6939116100665780634f9f6939146100f85780635bfe16301461010b57806372d187481461012e5780638da5cb5b14610141578063a6afd5fd1461015457600080fd5b8063040cc4e2146100985780631940b5e7146100ad57806343470ecd146100dd5780634e71e0c8146100f0575b600080fd5b6100ab6100a6366004610b2d565b610165565b005b6006546100c0906001600160a01b031681565b6040516001600160a01b0390911681526020015b60405180910390f35b6100ab6100eb366004610b76565b6103d8565b6100ab610544565b6100ab610106366004610c5f565b6105fb565b61011e610119366004610c82565b61064c565b6040516100d49493929190610ceb565b6100ab61013c366004610d27565b61074c565b6007546100c0906001600160a01b031681565b6002546040519081526020016100d4565b6007546001600160a01b031633146101985760405162461bcd60e51b815260040161018f90610d49565b60405180910390fd5b600060025467ffffffffffffffff8111156101b5576101b5610b60565b6040519080825280602002602001820160405280156101de578160200160208202803683370190505b5090506000805b6002548110156102a757600081815260016020908152604091829020825160608101845290546001600160a01b038116825260ff600160a01b82048116938301849052600160a81b90910481169382019390935291871614801561025257508460ff16816040015160ff16145b1561029457806000015184848151811061026e5761026e610d6c565b6001600160a01b03909216602092830291909101909101528261029081610d98565b9350505b508061029f81610d98565b9150506101e5565b5060008115610398576005546040516370a0823160e01b81523060048201526000916064916001600160a01b03909116906370a0823190602401602060405180830381865afa1580156102fe573d6000803e3d6000fd5b505050506040513d601f19601f820116820180604052508101906103229190610db1565b61032d90605f610dca565b6103379190610de9565b90506103438382610de9565b915060005b838110156103955761038385828151811061036557610365610d6c565b60209081029190910101516005546001600160a01b0316908561080f565b8061038d81610d98565b915050610348565b50505b60408051838152602081018390527f3dd7cdfdf4e5d88b2c52765aae44c16efeadbf6957757c3b3cc869ab9a88c4ba910160405180910390a15050505050565b60035442101561041a5760405162461bcd60e51b815260206004820152600d60248201526c115d995b9d119a5b9a5cda1959609a1b604482015260640161018f565b600454600554610439916001600160a01b039091169033903090610877565b336000908152602081905260409020805461045390610e0b565b9050600003610477573360009081526020819052604090206104758482610e93565b505b6002805490600061048783610d98565b9091555050604080516060810182523380825260ff8086166020808501918252868316858701908152600254600090815260019092529086902094518554925191518416600160a81b0260ff60a81b1992909416600160a01b026001600160a81b03199093166001600160a01b03919091161791909117161790915590517f1d29b2952635f03e8cf9027a4d81d6ad973c6e605955f43d241ca4c737d4c77c916105379186919086908690610ceb565b60405180910390a1505050565b6006546001600160a01b031633146105925760405162461bcd60e51b815260206004820152601160248201527027b7363ca83937b837b9b2b227bbb732b960791b604482015260640161018f565b600680546001600160a01b031990811690915560078054339281168317909155604080516001600160a01b0390921680835260208301939093527f8be0079c531659141344cd1fd0a4f28419497f9722a3daafe3b4186f6b6457e091015b60405180910390a150565b6007546001600160a01b031633146106255760405162461bcd60e51b815260040161018f90610d49565b600491909155600580546001600160a01b0319166001600160a01b03909216919091179055565b600081815260016020908152604080832081516060818101845291546001600160a01b03811680835260ff600160a01b8304811684880152600160a81b90920490911682850152855292849052908320805491939283928392906106af90610e0b565b80601f01602080910402602001604051908101604052809291908181526020018280546106db90610e0b565b80156107285780601f106106fd57610100808354040283529160200191610728565b820191906000526020600020905b81548152906001019060200180831161070b57829003601f168201915b50505050509450806000015193508060200151925080604001519150509193509193565b6007546001600160a01b031633146107765760405162461bcd60e51b815260040161018f90610d49565b6001600160a01b0381166107ba5760405162461bcd60e51b815260206004820152600b60248201526a5a65726f4164647265737360a81b604482015260640161018f565b600680546001600160a01b0319166001600160a01b0383169081179091556040805133815260208101929092527fe0b4efa3d38d02619a80181fa85dcce7f14709089827c79ad0aa92b430449d1491016105f0565b6040516001600160a01b03831660248201526044810182905261087290849063a9059cbb60e01b906064015b60408051601f198184030181529190526020810180516001600160e01b03166001600160e01b0319909316929092179091526108b5565b505050565b6040516001600160a01b03808516602483015283166044820152606481018290526108af9085906323b872dd60e01b9060840161083b565b50505050565b600061090a826040518060400160405280602081526020017f5361666545524332303a206c6f772d6c6576656c2063616c6c206661696c6564815250856001600160a01b03166109879092919063ffffffff16565b80519091501561087257808060200190518101906109289190610f53565b6108725760405162461bcd60e51b815260206004820152602a60248201527f5361666545524332303a204552433230206f7065726174696f6e20646964206e6044820152691bdd081cdd58d8d9595960b21b606482015260840161018f565b6060610996848460008561099e565b949350505050565b6060824710156109ff5760405162461bcd60e51b815260206004820152602660248201527f416464726573733a20696e73756666696369656e742062616c616e636520666f6044820152651c8818d85b1b60d21b606482015260840161018f565b600080866001600160a01b03168587604051610a1b9190610f75565b60006040518083038185875af1925050503d8060008114610a58576040519150601f19603f3d011682016040523d82523d6000602084013e610a5d565b606091505b5091509150610a6e87838387610a79565b979650505050505050565b60608315610ae8578251600003610ae1576001600160a01b0385163b610ae15760405162461bcd60e51b815260206004820152601d60248201527f416464726573733a2063616c6c20746f206e6f6e2d636f6e7472616374000000604482015260640161018f565b5081610996565b6109968383815115610afd5781518083602001fd5b8060405162461bcd60e51b815260040161018f9190610f91565b803560ff81168114610b2857600080fd5b919050565b60008060408385031215610b4057600080fd5b610b4983610b17565b9150610b5760208401610b17565b90509250929050565b634e487b7160e01b600052604160045260246000fd5b600080600060608486031215610b8b57600080fd5b833567ffffffffffffffff80821115610ba357600080fd5b818601915086601f830112610bb757600080fd5b813581811115610bc957610bc9610b60565b604051601f8201601f19908116603f01168101908382118183101715610bf157610bf1610b60565b81604052828152896020848701011115610c0a57600080fd5b826020860160208301376000602084830101528097505050505050610c3160208501610b17565b9150610c3f60408501610b17565b90509250925092565b80356001600160a01b0381168114610b2857600080fd5b60008060408385031215610c7257600080fd5b82359150610b5760208401610c48565b600060208284031215610c9457600080fd5b5035919050565b60005b83811015610cb6578181015183820152602001610c9e565b50506000910152565b60008151808452610cd7816020860160208601610c9b565b601f01601f19169290920160200192915050565b608081526000610cfe6080830187610cbf565b6001600160a01b039590951660208301525060ff92831660408201529116606090910152919050565b600060208284031215610d3957600080fd5b610d4282610c48565b9392505050565b60208082526009908201526827b7363ca7bbb732b960b91b604082015260600190565b634e487b7160e01b600052603260045260246000fd5b634e487b7160e01b600052601160045260246000fd5b600060018201610daa57610daa610d82565b5060010190565b600060208284031215610dc357600080fd5b5051919050565b6000816000190483118215151615610de457610de4610d82565b500290565b600082610e0657634e487b7160e01b600052601260045260246000fd5b500490565b600181811c90821680610e1f57607f821691505b602082108103610e3f57634e487b7160e01b600052602260045260246000fd5b50919050565b601f82111561087257600081815260208120601f850160051c81016020861015610e6c5750805b601f850160051c820191505b81811015610e8b57828155600101610e78565b505050505050565b815167ffffffffffffffff811115610ead57610ead610b60565b610ec181610ebb8454610e0b565b84610e45565b602080601f831160018114610ef65760008415610ede5750858301515b600019600386901b1c1916600185901b178555610e8b565b600085815260208120601f198616915b82811015610f2557888601518255948401946001909101908401610f06565b5085821015610f435787850151600019600388901b60f8161c191681555b5050505050600190811b01905550565b600060208284031215610f6557600080fd5b81518015158114610d4257600080fd5b60008251610f87818460208701610c9b565b9190910192915050565b602081526000610d426020830184610cbf56fea2646970667358221220bb47106f782bd30dd7481c91832ca91e4295ec6af0d4f3a0f0f679c27d4ca95d64736f6c63430008100033",
  "immutableReferences": {},
  "source": "// SPDX-License-Identifier: MIT\npragma solidity 0.8.16;\n\nimport \"@openzeppelin/contracts/token/ERC20/IERC20.sol\";\nimport \"@openzeppelin/contracts/token/ERC20/utils/SafeERC20.sol\";\n\ncontract BetPool {\n    using SafeERC20 for IERC20;\n\n    struct BetPoolStruct {\n        address owner;\n        uint8 leftScore;\n        uint8 rightScore;\n    }\n    mapping(address => string) private names;\n    mapping(uint256 => BetPoolStruct) private bets;\n    uint256 private betCounter;\n    uint256 private endDate;\n\n    uint256 private amount;\n    address private token;\n\n    address public ownerPendingClaim;\n    address public owner;\n\n    bool private initialized = false;\n\n    event onBet(string _name, address _owner, uint8 _scoreLeft, uint8 _scoreRight);\n    event onBetResolved(uint256 _winners, uint256 _unitPrize);\n    event NewOwnershipProposed(address _currentOwner, address _proposedOwner);\n    event OwnershipTransferred(address _previousOwner, address _newOwner);\n\n    constructor(uint256 _defaultAmount, address _defaultToken, uint256 _endDate) {\n        amount = _defaultAmount;\n        token = _defaultToken;\n        endDate = _endDate;\n        owner = msg.sender;\n    }\n\n    function bet(string memory _name, uint8 _leftScore, uint8 _rightScore) external {\n        require(block.timestamp >= endDate, \"EventFinished\");\n\n        IERC20(token).safeTransferFrom(msg.sender, address(this), amount);\n        if (bytes(names[msg.sender]).length == 0) names[msg.sender] = _name;\n        \n        betCounter++;\n        bets[betCounter] = BetPoolStruct({\n            owner: msg.sender,\n            leftScore: _leftScore,\n            rightScore: _rightScore\n        });\n\n        emit onBet(_name, msg.sender, _leftScore, _rightScore);\n    }\n\n    function getBetData(uint256 _index) external view returns (string memory _name, address _owner, uint8 _leftScore, uint8 _rightScore) {\n        BetPoolStruct memory betPool = bets[_index];\n        _name = names[betPool.owner];\n        _owner = betPool.owner;\n        _leftScore = betPool.leftScore;\n        _rightScore = betPool.rightScore;\n    }\n\n    function getBets() external view returns (uint256) {\n        return betCounter;\n    }\n\n    function resolveBet(uint8 leftScore, uint8 rightScore) external {\n        require(msg.sender == owner, \"OnlyOwner\");\n\n        address[] memory winners = new address[](betCounter);\n        uint256 numWinners = 0;\n        for (uint256 i=0; i<betCounter; i++) {\n            BetPoolStruct memory betPool = bets[i];\n            if ((betPool.leftScore == leftScore) && (betPool.rightScore == rightScore)) {\n                winners[numWinners] = betPool.owner;\n                numWinners++;\n            }\n        }\n\n        uint256 unitPrize = 0;\n        if (numWinners > 0) {\n            uint256 totalPriceToShare = IERC20(token).balanceOf(address(this)) * 95 / 100;\n            unitPrize = totalPriceToShare / numWinners;\n            for (uint256 i=0; i<numWinners; i++) IERC20(token).safeTransfer(winners[i], unitPrize);\n        }\n\n        emit onBetResolved(numWinners, unitPrize);\n    }\n\n    function setAmountAndToken(uint256 _amount, address _token) external {\n        require(msg.sender == owner, \"OnlyOwner\");\n        amount = _amount;\n        token = _token;\n    }\n\n    function proposeChangeOwner(address _owner) external {\n        require(msg.sender == owner, \"OnlyOwner\");\n        require(_owner != address(0), \"ZeroAddress\");\n        ownerPendingClaim = _owner;\n\n        emit NewOwnershipProposed(msg.sender, _owner);\n    }\n\n    function claimOwnership() external {\n        require(msg.sender == ownerPendingClaim, \"OnlyProposedOwner\");\n        ownerPendingClaim = address(0);\n        address oldOwner = owner;\n        owner = msg.sender;\n\n        emit OwnershipTransferred(oldOwner, owner);\n    }\n}\n",
  "sourcePath": "/Users/josepl/Downloads/BetPool/contracts/BetPool.sol",
  "compiler": {
    "name": "solc",
    "version": "0.8.16+commit.07a7930e.Emscripten.clang"
  },
  "schemaVersion": "3.4.11",
  "updatedAt": "2022-12-10T08:56:11.441Z",
  "networkType": "ethereum",
  "devdoc": {
    "kind": "dev",
    "methods": {},
    "version": 1
  },
  "userdoc": {
    "kind": "user",
    "methods": {},
    "version": 1
  }
}