{
  "_format": "hh-sol-artifact-1",
  "contractName": "FactoryBetPool",
  "sourceName": "contracts/FactoryBetPool.sol",
  "abi": [
    {
      "inputs": [
        {
          "internalType": "address",
          "name": "_betPoolTemplate",
          "type": "address"
        }
      ],
      "stateMutability": "nonpayable",
      "type": "constructor"
    },
    {
      "anonymous": false,
      "inputs": [
        {
          "indexed": false,
          "internalType": "address",
          "name": "_currentOwner",
          "type": "address"
        },
        {
          "indexed": false,
          "internalType": "address",
          "name": "_proposedOwner",
          "type": "address"
        }
      ],
      "name": "NewOwnershipProposed",
      "type": "event"
    },
    {
      "anonymous": false,
      "inputs": [
        {
          "indexed": false,
          "internalType": "address",
          "name": "_previousOwner",
          "type": "address"
        },
        {
          "indexed": false,
          "internalType": "address",
          "name": "_newOwner",
          "type": "address"
        }
      ],
      "name": "OwnershipTransferred",
      "type": "event"
    },
    {
      "anonymous": false,
      "inputs": [
        {
          "indexed": false,
          "internalType": "uint256",
          "name": "_betAmount",
          "type": "uint256"
        },
        {
          "indexed": false,
          "internalType": "address",
          "name": "_betToken",
          "type": "address"
        },
        {
          "indexed": false,
          "internalType": "uint256",
          "name": "_endDate",
          "type": "uint256"
        },
        {
          "indexed": false,
          "internalType": "address",
          "name": "betPool",
          "type": "address"
        }
      ],
      "name": "onBetPoolCreated",
      "type": "event"
    },
    {
      "anonymous": false,
      "inputs": [
        {
          "indexed": false,
          "internalType": "address",
          "name": "_betPool",
          "type": "address"
        }
      ],
      "name": "onBetPoolTemplateUpdated",
      "type": "event"
    },
    {
      "inputs": [],
      "name": "claimOwnership",
      "outputs": [],
      "stateMutability": "nonpayable",
      "type": "function"
    },
    {
      "inputs": [
        {
          "internalType": "uint256",
          "name": "_betAmount",
          "type": "uint256"
        },
        {
          "internalType": "address",
          "name": "_betToken",
          "type": "address"
        },
        {
          "internalType": "uint256",
          "name": "_endDate",
          "type": "uint256"
        }
      ],
      "name": "createBetPool",
      "outputs": [],
      "stateMutability": "nonpayable",
      "type": "function"
    },
    {
      "inputs": [],
      "name": "owner",
      "outputs": [
        {
          "internalType": "address",
          "name": "",
          "type": "address"
        }
      ],
      "stateMutability": "view",
      "type": "function"
    },
    {
      "inputs": [],
      "name": "ownerPendingClaim",
      "outputs": [
        {
          "internalType": "address",
          "name": "",
          "type": "address"
        }
      ],
      "stateMutability": "view",
      "type": "function"
    },
    {
      "inputs": [
        {
          "internalType": "address",
          "name": "_owner",
          "type": "address"
        }
      ],
      "name": "proposeChangeOwner",
      "outputs": [],
      "stateMutability": "nonpayable",
      "type": "function"
    },
    {
      "inputs": [
        {
          "internalType": "address",
          "name": "_betPoolTemplate",
          "type": "address"
        }
      ],
      "name": "updateBetPoolTemplate",
      "outputs": [],
      "stateMutability": "nonpayable",
      "type": "function"
    }
  ],
  "bytecode": "0x608060405234801561001057600080fd5b50604051610d25380380610d258339818101604052810190610032919061011c565b806000806101000a81548173ffffffffffffffffffffffffffffffffffffffff021916908373ffffffffffffffffffffffffffffffffffffffff16021790555033600260006101000a81548173ffffffffffffffffffffffffffffffffffffffff021916908373ffffffffffffffffffffffffffffffffffffffff16021790555050610149565b600080fd5b600073ffffffffffffffffffffffffffffffffffffffff82169050919050565b60006100e9826100be565b9050919050565b6100f9816100de565b811461010457600080fd5b50565b600081519050610116816100f0565b92915050565b600060208284031215610132576101316100b9565b5b600061014084828501610107565b91505092915050565b610bcd806101586000396000f3fe608060405234801561001057600080fd5b50600436106100625760003560e01c80631940b5e7146100675780634e71e0c81461008557806372d187481461008f5780637cbd9b1e146100ab5780638da5cb5b146100c7578063aad274b0146100e5575b600080fd5b61006f610101565b60405161007c91906107b4565b60405180910390f35b61008d610127565b005b6100a960048036038101906100a49190610800565b6102bf565b005b6100c560048036038101906100c09190610863565b61043b565b005b6100cf61051a565b6040516100dc91906107b4565b60405180910390f35b6100ff60048036038101906100fa9190610800565b610540565b005b600160009054906101000a900473ffffffffffffffffffffffffffffffffffffffff1681565b600160009054906101000a900473ffffffffffffffffffffffffffffffffffffffff1673ffffffffffffffffffffffffffffffffffffffff163373ffffffffffffffffffffffffffffffffffffffff16146101b7576040517f08c379a00000000000000000000000000000000000000000000000000000000081526004016101ae90610913565b60405180910390fd5b6000600160006101000a81548173ffffffffffffffffffffffffffffffffffffffff021916908373ffffffffffffffffffffffffffffffffffffffff1602179055506000600260009054906101000a900473ffffffffffffffffffffffffffffffffffffffff16905033600260006101000a81548173ffffffffffffffffffffffffffffffffffffffff021916908373ffffffffffffffffffffffffffffffffffffffff1602179055507f8be0079c531659141344cd1fd0a4f28419497f9722a3daafe3b4186f6b6457e081600260009054906101000a900473ffffffffffffffffffffffffffffffffffffffff166040516102b4929190610933565b60405180910390a150565b600260009054906101000a900473ffffffffffffffffffffffffffffffffffffffff1673ffffffffffffffffffffffffffffffffffffffff163373ffffffffffffffffffffffffffffffffffffffff161461034f576040517f08c379a0000000000000000000000000000000000000000000000000000000008152600401610346906109a8565b60405180910390fd5b600073ffffffffffffffffffffffffffffffffffffffff168173ffffffffffffffffffffffffffffffffffffffff16036103be576040517f08c379a00000000000000000000000000000000000000000000000000000000081526004016103b590610a14565b60405180910390fd5b80600160006101000a81548173ffffffffffffffffffffffffffffffffffffffff021916908373ffffffffffffffffffffffffffffffffffffffff1602179055507fe0b4efa3d38d02619a80181fa85dcce7f14709089827c79ad0aa92b430449d143382604051610430929190610933565b60405180910390a150565b600061046660008054906101000a900473ffffffffffffffffffffffffffffffffffffffff166106b9565b90508073ffffffffffffffffffffffffffffffffffffffff1663fffb51838585856040518463ffffffff1660e01b81526004016104a593929190610a43565b600060405180830381600087803b1580156104bf57600080fd5b505af11580156104d3573d6000803e3d6000fd5b505050507fc880f958b651364ebee59d324b43a5f843ebe48ff87514b28ccdff5231ba33648484848460405161050c9493929190610a7a565b60405180910390a150505050565b600260009054906101000a900473ffffffffffffffffffffffffffffffffffffffff1681565b600260009054906101000a900473ffffffffffffffffffffffffffffffffffffffff1673ffffffffffffffffffffffffffffffffffffffff163373ffffffffffffffffffffffffffffffffffffffff16146105d0576040517f08c379a00000000000000000000000000000000000000000000000000000000081526004016105c7906109a8565b60405180910390fd5b600073ffffffffffffffffffffffffffffffffffffffff168173ffffffffffffffffffffffffffffffffffffffff160361063f576040517f08c379a000000000000000000000000000000000000000000000000000000000815260040161063690610b0b565b60405180910390fd5b806000806101000a81548173ffffffffffffffffffffffffffffffffffffffff021916908373ffffffffffffffffffffffffffffffffffffffff1602179055507f38c3350876a35b3f4fff2f94bb52f3fc7663b8ae8b1d5aa427f502b4797536f0816040516106ae91906107b4565b60405180910390a150565b6000763d602d80600a3d3981f3363d3d373d3d3d363d730000008260601b60e81c176000526e5af43d82803e903d91602b57fd5bf38260781b17602052603760096000f09050600073ffffffffffffffffffffffffffffffffffffffff168173ffffffffffffffffffffffffffffffffffffffff160361076e576040517f08c379a000000000000000000000000000000000000000000000000000000000815260040161076590610b77565b60405180910390fd5b919050565b600073ffffffffffffffffffffffffffffffffffffffff82169050919050565b600061079e82610773565b9050919050565b6107ae81610793565b82525050565b60006020820190506107c960008301846107a5565b92915050565b600080fd5b6107dd81610793565b81146107e857600080fd5b50565b6000813590506107fa816107d4565b92915050565b600060208284031215610816576108156107cf565b5b6000610824848285016107eb565b91505092915050565b6000819050919050565b6108408161082d565b811461084b57600080fd5b50565b60008135905061085d81610837565b92915050565b60008060006060848603121561087c5761087b6107cf565b5b600061088a8682870161084e565b935050602061089b868287016107eb565b92505060406108ac8682870161084e565b9150509250925092565b600082825260208201905092915050565b7f4f6e6c7950726f706f7365644f776e6572000000000000000000000000000000600082015250565b60006108fd6011836108b6565b9150610908826108c7565b602082019050919050565b6000602082019050818103600083015261092c816108f0565b9050919050565b600060408201905061094860008301856107a5565b61095560208301846107a5565b9392505050565b7f4f6e6c794f776e65720000000000000000000000000000000000000000000000600082015250565b60006109926009836108b6565b915061099d8261095c565b602082019050919050565b600060208201905081810360008301526109c181610985565b9050919050565b7f5a65726f41646472657373000000000000000000000000000000000000000000600082015250565b60006109fe600b836108b6565b9150610a09826109c8565b602082019050919050565b60006020820190508181036000830152610a2d816109f1565b9050919050565b610a3d8161082d565b82525050565b6000606082019050610a586000830186610a34565b610a6560208301856107a5565b610a726040830184610a34565b949350505050565b6000608082019050610a8f6000830187610a34565b610a9c60208301866107a5565b610aa96040830185610a34565b610ab660608301846107a5565b95945050505050565b7f4e756c6c41646472657373000000000000000000000000000000000000000000600082015250565b6000610af5600b836108b6565b9150610b0082610abf565b602082019050919050565b60006020820190508181036000830152610b2481610ae8565b9050919050565b7f455243313136373a20637265617465206661696c656400000000000000000000600082015250565b6000610b616016836108b6565b9150610b6c82610b2b565b602082019050919050565b60006020820190508181036000830152610b9081610b54565b905091905056fea2646970667358221220b0c8335284f2dff9bfc38c8599bf0936a07f42458d4764c9c9eed07c3e4173b364736f6c63430008100033",
  "linkReferences": {},
  "deployedLinkReferences": {}
}